{
  "contractName": "SnakesAndLaddersMock",
  "abi": [
    {
      "constant": false,
      "inputs": [
        {
          "name": "amount",
          "type": "uint256"
        }
      ],
      "name": "withdrawFunds",
      "outputs": [],
      "payable": false,
      "stateMutability": "nonpayable",
      "type": "function",
      "signature": "0x155dd5ee"
    },
    {
      "constant": true,
      "inputs": [
        {
          "name": "",
          "type": "address"
        }
      ],
      "name": "balances",
      "outputs": [
        {
          "name": "",
          "type": "uint256"
        }
      ],
      "payable": false,
      "stateMutability": "view",
      "type": "function",
      "signature": "0x27e235e3"
    },
    {
      "constant": false,
      "inputs": [],
      "name": "withdrawBalance",
      "outputs": [],
      "payable": false,
      "stateMutability": "nonpayable",
      "type": "function",
      "signature": "0x5fd8c710"
    },
    {
      "constant": false,
      "inputs": [
        {
          "name": "amount",
          "type": "uint256"
        }
      ],
      "name": "play",
      "outputs": [],
      "payable": false,
      "stateMutability": "nonpayable",
      "type": "function",
      "signature": "0x6898f82b"
    },
    {
      "constant": false,
      "inputs": [],
      "name": "renounceOwnership",
      "outputs": [],
      "payable": false,
      "stateMutability": "nonpayable",
      "type": "function",
      "signature": "0x715018a6"
    },
    {
      "constant": true,
      "inputs": [],
      "name": "owner",
      "outputs": [
        {
          "name": "",
          "type": "address"
        }
      ],
      "payable": false,
      "stateMutability": "view",
      "type": "function",
      "signature": "0x8da5cb5b"
    },
    {
      "constant": true,
      "inputs": [],
      "name": "isOwner",
      "outputs": [
        {
          "name": "",
          "type": "bool"
        }
      ],
      "payable": false,
      "stateMutability": "view",
      "type": "function",
      "signature": "0x8f32d59b"
    },
    {
      "constant": true,
      "inputs": [
        {
          "name": "randomString",
          "type": "uint256"
        },
        {
          "name": "turn",
          "type": "uint256"
        }
      ],
      "name": "randomDice",
      "outputs": [
        {
          "name": "",
          "type": "int8"
        }
      ],
      "payable": false,
      "stateMutability": "pure",
      "type": "function",
      "signature": "0x9f4aec59"
    },
    {
      "constant": false,
      "inputs": [],
      "name": "addFunds",
      "outputs": [],
      "payable": true,
      "stateMutability": "payable",
      "type": "function",
      "signature": "0xa26759cb"
    },
    {
      "constant": false,
      "inputs": [],
      "name": "addBalance",
      "outputs": [],
      "payable": true,
      "stateMutability": "payable",
      "type": "function",
      "signature": "0xb163cc38"
    },
    {
      "constant": false,
      "inputs": [
        {
          "name": "amount",
          "type": "uint256"
        }
      ],
      "name": "addAndPlay",
      "outputs": [],
      "payable": true,
      "stateMutability": "payable",
      "type": "function",
      "signature": "0xddd848dc"
    },
    {
      "constant": false,
      "inputs": [
        {
          "name": "newOwner",
          "type": "address"
        }
      ],
      "name": "transferOwnership",
      "outputs": [],
      "payable": false,
      "stateMutability": "nonpayable",
      "type": "function",
      "signature": "0xf2fde38b"
    },
    {
      "payable": true,
      "stateMutability": "payable",
      "type": "fallback"
    },
    {
      "anonymous": false,
      "inputs": [
        {
          "indexed": false,
          "name": "sender",
          "type": "address"
        },
        {
          "indexed": false,
          "name": "turn",
          "type": "uint256"
        },
        {
          "indexed": false,
          "name": "player",
          "type": "bool"
        },
        {
          "indexed": false,
          "name": "move",
          "type": "int256"
        }
      ],
      "name": "LogMove",
      "type": "event",
      "signature": "0x328ae74d0ec75f72cd982577fe559f138c5af6cb657e7f72797dc856533afad5"
    },
    {
      "anonymous": false,
      "inputs": [
        {
          "indexed": false,
          "name": "sender",
          "type": "address"
        },
        {
          "indexed": false,
          "name": "result",
          "type": "bool"
        },
        {
          "indexed": false,
          "name": "balancediff",
          "type": "int256"
        }
      ],
      "name": "LogGame",
      "type": "event",
      "signature": "0xcb89bd3d0a28836c160c46e949d36d2c54627c2f03143564b726fe40475472b1"
    },
    {
      "anonymous": false,
      "inputs": [
        {
          "indexed": false,
          "name": "sender",
          "type": "address"
        },
        {
          "indexed": false,
          "name": "amount",
          "type": "uint256"
        }
      ],
      "name": "LogFund",
      "type": "event",
      "signature": "0x527b059b2c1f34c287da42c15a6cb163dc09fd8b048e89a6a92f568c6a808d4a"
    },
    {
      "anonymous": false,
      "inputs": [
        {
          "indexed": false,
          "name": "sender",
          "type": "address"
        },
        {
          "indexed": false,
          "name": "amount",
          "type": "uint256"
        }
      ],
      "name": "LogWithdraw",
      "type": "event",
      "signature": "0x4ce7033d118120e254016dccf195288400b28fc8936425acd5f17ce2df3ab708"
    },
    {
      "anonymous": false,
      "inputs": [
        {
          "indexed": false,
          "name": "sender",
          "type": "address"
        },
        {
          "indexed": false,
          "name": "amount",
          "type": "uint256"
        }
      ],
      "name": "LogAddBalance",
      "type": "event",
      "signature": "0x80375a06eb2ba0cd76499d617b8cdbca746cd345d62f74447f626e359b213941"
    },
    {
      "anonymous": false,
      "inputs": [
        {
          "indexed": false,
          "name": "sender",
          "type": "address"
        },
        {
          "indexed": false,
          "name": "amount",
          "type": "uint256"
        }
      ],
      "name": "LogRemoveBalance",
      "type": "event",
      "signature": "0xf79628edbc100ee4c818afdbe8e79d40d646414b0ac60346142e347144b9caed"
    },
    {
      "anonymous": false,
      "inputs": [
        {
          "indexed": true,
          "name": "previousOwner",
          "type": "address"
        },
        {
          "indexed": true,
          "name": "newOwner",
          "type": "address"
        }
      ],
      "name": "OwnershipTransferred",
      "type": "event",
      "signature": "0x8be0079c531659141344cd1fd0a4f28419497f9722a3daafe3b4186f6b6457e0"
    },
    {
      "constant": false,
      "inputs": [
        {
          "name": "n",
          "type": "uint256"
        }
      ],
      "name": "setNonce",
      "outputs": [],
      "payable": false,
      "stateMutability": "nonpayable",
      "type": "function",
      "signature": "0xf360c183"
    },
    {
      "constant": true,
      "inputs": [],
      "name": "random",
      "outputs": [
        {
          "name": "",
          "type": "uint256"
        }
      ],
      "payable": false,
      "stateMutability": "view",
      "type": "function",
      "signature": "0x5ec01e4d"
    }
  ],
  "bytecode": "0x60806040526064600360006101000a81548160ff021916908360000b60ff1602179055506000600455336000806101000a81548173ffffffffffffffffffffffffffffffffffffffff021916908373ffffffffffffffffffffffffffffffffffffffff1602179055506000809054906101000a900473ffffffffffffffffffffffffffffffffffffffff1673ffffffffffffffffffffffffffffffffffffffff16600073ffffffffffffffffffffffffffffffffffffffff167f8be0079c531659141344cd1fd0a4f28419497f9722a3daafe3b4186f6b6457e060405160405180910390a3600e60026000600460000b815260200190815260200160002060006101000a81548160ff021916908360000b60ff160217905550602060026000600860000b815260200190815260200160002060006101000a81548160ff021916908360000b60ff160217905550602660026000601460000b815260200190815260200160002060006101000a81548160ff021916908360000b60ff160217905550605460026000601c60000b815260200190815260200160002060006101000a81548160ff021916908360000b60ff160217905550603b60026000602860000b815260200190815260200160002060006101000a81548160ff021916908360000b60ff160217905550605360026000603a60000b815260200190815260200160002060006101000a81548160ff021916908360000b60ff160217905550605d60026000604860000b815260200190815260200160002060006101000a81548160ff021916908360000b60ff160217905550600360026000600f60000b815260200190815260200160002060006101000a81548160ff021916908360000b60ff160217905550600960026000601f60000b815260200190815260200160002060006101000a81548160ff021916908360000b60ff160217905550601a60026000602c60000b815260200190815260200160002060006101000a81548160ff021916908360000b60ff160217905550601360026000603e60000b815260200190815260200160002060006101000a81548160ff021916908360000b60ff160217905550602a60026000604060000b815260200190815260200160002060006101000a81548160ff021916908360000b60ff160217905550604660026000604a60000b815260200190815260200160002060006101000a81548160ff021916908360000b60ff160217905550602160026000605560000b815260200190815260200160002060006101000a81548160ff021916908360000b60ff160217905550604760026000605b60000b815260200190815260200160002060006101000a81548160ff021916908360000b60ff160217905550604b60026000606060000b815260200190815260200160002060006101000a81548160ff021916908360000b60ff160217905550605060026000606260000b815260200190815260200160002060006101000a81548160ff021916908360000b60ff160217905550611522806104676000396000f3fe6080604052600436106100d0576000357c0100000000000000000000000000000000000000000000000000000000900463ffffffff168063155dd5ee1461013e57806327e235e3146101795780635ec01e4d146101de5780635fd8c710146102095780636898f82b14610220578063715018a61461025b5780638da5cb5b146102725780638f32d59b146102c95780639f4aec59146102f8578063a26759cb14610357578063b163cc3814610361578063ddd848dc1461036b578063f2fde38b14610399578063f360c183146103ea575b6040517f08c379a000000000000000000000000000000000000000000000000000000000815260040180806020018281038252601d8152602001807f5573652061646442616c616e636520746f2073656e64206d6f6e65792e00000081525060200191505060405180910390fd5b34801561014a57600080fd5b506101776004803603602081101561016157600080fd5b8101908080359060200190929190505050610425565b005b34801561018557600080fd5b506101c86004803603602081101561019c57600080fd5b81019080803573ffffffffffffffffffffffffffffffffffffffff1690602001909291905050506106b1565b6040518082815260200191505060405180910390f35b3480156101ea57600080fd5b506101f36106c9565b6040518082815260200191505060405180910390f35b34801561021557600080fd5b5061021e6106fd565b005b34801561022c57600080fd5b506102596004803603602081101561024357600080fd5b81019080803590602001909291905050506108b3565b005b34801561026757600080fd5b50610270610e7e565b005b34801561027e57600080fd5b50610287610fb9565b604051808273ffffffffffffffffffffffffffffffffffffffff1673ffffffffffffffffffffffffffffffffffffffff16815260200191505060405180910390f35b3480156102d557600080fd5b506102de610fe2565b604051808215151515815260200191505060405180910390f35b34801561030457600080fd5b5061033b6004803603604081101561031b57600080fd5b810190808035906020019092919080359060200190929190505050611039565b604051808260000b60000b815260200191505060405180910390f35b61035f611074565b005b61036961115d565b005b6103976004803603602081101561038157600080fd5b8101908080359060200190929190505050611217565b005b3480156103a557600080fd5b506103e8600480360360208110156103bc57600080fd5b81019080803573ffffffffffffffffffffffffffffffffffffffff1690602001909291905050506112db565b005b3480156103f657600080fd5b506104236004803603602081101561040d57600080fd5b8101908080359060200190929190505050611363565b005b61042d610fe2565b15156104a1576040517f08c379a00000000000000000000000000000000000000000000000000000000081526004018080602001828103825260208152602001807f4f776e61626c653a2063616c6c6572206973206e6f7420746865206f776e657281525060200191505060405180910390fd5b60003073ffffffffffffffffffffffffffffffffffffffff1631111515610530576040517f08c379a000000000000000000000000000000000000000000000000000000000815260040180806020018281038252601f8152602001807f5468657265206973206e6f2062616c616e636520746f2077697468647261770081525060200191505060405180910390fd5b803073ffffffffffffffffffffffffffffffffffffffff1631101515156105e5576040517f08c379a00000000000000000000000000000000000000000000000000000000081526004018080602001828103825260278152602001807f5468657265206973206e6f7420656e6f7567682062616c616e636520746f207781526020017f697468647261770000000000000000000000000000000000000000000000000081525060400191505060405180910390fd5b7ff79628edbc100ee4c818afdbe8e79d40d646414b0ac60346142e347144b9caed333073ffffffffffffffffffffffffffffffffffffffff1631604051808373ffffffffffffffffffffffffffffffffffffffff1673ffffffffffffffffffffffffffffffffffffffff1681526020018281526020019250505060405180910390a13373ffffffffffffffffffffffffffffffffffffffff166108fc829081150290604051600060405180830381858888f193505050501580156106ad573d6000803e3d6000fd5b5050565b60016020528060005260406000206000915090505481565b6000600454604051602001808281526020019150506040516020818303038152906040528051906020012060019004905090565b6000600160003373ffffffffffffffffffffffffffffffffffffffff1673ffffffffffffffffffffffffffffffffffffffff1681526020019081526020016000205490506000811115156107b9576040517f08c379a000000000000000000000000000000000000000000000000000000000815260040180806020018281038252601f8152602001807f5468657265206973206e6f2062616c616e636520746f2077697468647261770081525060200191505060405180910390fd5b7f4ce7033d118120e254016dccf195288400b28fc8936425acd5f17ce2df3ab7083382604051808373ffffffffffffffffffffffffffffffffffffffff1673ffffffffffffffffffffffffffffffffffffffff1681526020018281526020019250505060405180910390a16000600160003373ffffffffffffffffffffffffffffffffffffffff1673ffffffffffffffffffffffffffffffffffffffff168152602001908152602001600020819055503373ffffffffffffffffffffffffffffffffffffffff166108fc829081150290604051600060405180830381858888f193505050501580156108af573d6000803e3d6000fd5b5050565b60008111151561092b576040517f08c379a000000000000000000000000000000000000000000000000000000000815260040180806020018281038252601e8152602001807f596f75206d7573742073656e6420736f6d657468696e6720746f20626574000081525060200191505060405180910390fd5b600160003373ffffffffffffffffffffffffffffffffffffffff1673ffffffffffffffffffffffffffffffffffffffff1681526020019081526020016000205481111515156109e2576040517f08c379a000000000000000000000000000000000000000000000000000000000815260040180806020018281038252601d8152602001807f596f7520646f6e2774206861766520656e6f7567682062616c616e636500000081525060200191505060405180910390fd5b3073ffffffffffffffffffffffffffffffffffffffff1631600a8202101515610a99576040517f08c379a00000000000000000000000000000000000000000000000000000000081526004018080602001828103825260368152602001807f596f752063616e6e6f7420626574206d6f7265207468616e20312f3130206f6681526020017f207468697320636f6e74726163742062616c616e63650000000000000000000081525060400191505060405180910390fd5b6000610aa36106c9565b905060008090506000809050600080905060008090506000610ac68660ff611039565b905060018160000b1480610add575060028160000b145b15610ae757600193505b5b600360009054906101000a900460000b60000b8360000b14158015610b225750600360009054906101000a900460000b60000b8260000b14155b15610cc5576000610b338787611039565b90508415610bb85780840193506000600260008660000b60000b815260200190815260200160002060009054906101000a900460000b60000b141515610b9d57600260008560000b60000b815260200190815260200160002060009054906101000a900460000b93505b60648460000b1315610bb3576064840360640393505b610c31565b80830192506000600260008560000b60000b815260200190815260200160002060009054906101000a900460000b60000b141515610c1a57600260008460000b60000b815260200190815260200160002060009054906101000a900460000b92505b60648360000b1315610c30576064830360640392505b5b7f328ae74d0ec75f72cd982577fe559f138c5af6cb657e7f72797dc856533afad533878784604051808573ffffffffffffffffffffffffffffffffffffffff1673ffffffffffffffffffffffffffffffffffffffff168152602001848152602001831515151581526020018260000b815260200194505050505060405180910390a184159450858060010196505050610ae8565b600360009054906101000a900460000b60000b8360000b1415610dac5786600160003373ffffffffffffffffffffffffffffffffffffffff1673ffffffffffffffffffffffffffffffffffffffff168152602001908152602001600020600082825401925050819055507fcb89bd3d0a28836c160c46e949d36d2c54627c2f03143564b726fe40475472b133600189604051808473ffffffffffffffffffffffffffffffffffffffff1673ffffffffffffffffffffffffffffffffffffffff16815260200183151515158152602001828152602001935050505060405180910390a1610e75565b86600160003373ffffffffffffffffffffffffffffffffffffffff1673ffffffffffffffffffffffffffffffffffffffff168152602001908152602001600020600082825403925050819055507fcb89bd3d0a28836c160c46e949d36d2c54627c2f03143564b726fe40475472b133600089600003604051808473ffffffffffffffffffffffffffffffffffffffff1673ffffffffffffffffffffffffffffffffffffffff16815260200183151515158152602001828152602001935050505060405180910390a15b50505050505050565b610e86610fe2565b1515610efa576040517f08c379a00000000000000000000000000000000000000000000000000000000081526004018080602001828103825260208152602001807f4f776e61626c653a2063616c6c6572206973206e6f7420746865206f776e657281525060200191505060405180910390fd5b600073ffffffffffffffffffffffffffffffffffffffff166000809054906101000a900473ffffffffffffffffffffffffffffffffffffffff1673ffffffffffffffffffffffffffffffffffffffff167f8be0079c531659141344cd1fd0a4f28419497f9722a3daafe3b4186f6b6457e060405160405180910390a360008060006101000a81548173ffffffffffffffffffffffffffffffffffffffff021916908373ffffffffffffffffffffffffffffffffffffffff160217905550565b60008060009054906101000a900473ffffffffffffffffffffffffffffffffffffffff16905090565b60008060009054906101000a900473ffffffffffffffffffffffffffffffffffffffff1673ffffffffffffffffffffffffffffffffffffffff163373ffffffffffffffffffffffffffffffffffffffff1614905090565b60006101008281151561104857fe5b069150600160068360020a8581151561105d57fe5b0460ff1681151561106a57fe5b0601905092915050565b61107c610fe2565b15156110f0576040517f08c379a00000000000000000000000000000000000000000000000000000000081526004018080602001828103825260208152602001807f4f776e61626c653a2063616c6c6572206973206e6f7420746865206f776e657281525060200191505060405180910390fd5b7f80375a06eb2ba0cd76499d617b8cdbca746cd345d62f74447f626e359b2139413334604051808373ffffffffffffffffffffffffffffffffffffffff1673ffffffffffffffffffffffffffffffffffffffff1681526020018281526020019250505060405180910390a1565b7f527b059b2c1f34c287da42c15a6cb163dc09fd8b048e89a6a92f568c6a808d4a3334604051808373ffffffffffffffffffffffffffffffffffffffff1673ffffffffffffffffffffffffffffffffffffffff1681526020018281526020019250505060405180910390a134600160003373ffffffffffffffffffffffffffffffffffffffff1673ffffffffffffffffffffffffffffffffffffffff16815260200190815260200160002060008282540192505081905550565b7f527b059b2c1f34c287da42c15a6cb163dc09fd8b048e89a6a92f568c6a808d4a3334604051808373ffffffffffffffffffffffffffffffffffffffff1673ffffffffffffffffffffffffffffffffffffffff1681526020018281526020019250505060405180910390a134600160003373ffffffffffffffffffffffffffffffffffffffff1673ffffffffffffffffffffffffffffffffffffffff168152602001908152602001600020600082825401925050819055506112d8816108b3565b50565b6112e3610fe2565b1515611357576040517f08c379a00000000000000000000000000000000000000000000000000000000081526004018080602001828103825260208152602001807f4f776e61626c653a2063616c6c6572206973206e6f7420746865206f776e657281525060200191505060405180910390fd5b6113608161136d565b50565b8060048190555050565b600073ffffffffffffffffffffffffffffffffffffffff168173ffffffffffffffffffffffffffffffffffffffff1614151515611438576040517f08c379a00000000000000000000000000000000000000000000000000000000081526004018080602001828103825260268152602001807f4f776e61626c653a206e6577206f776e657220697320746865207a65726f206181526020017f646472657373000000000000000000000000000000000000000000000000000081525060400191505060405180910390fd5b8073ffffffffffffffffffffffffffffffffffffffff166000809054906101000a900473ffffffffffffffffffffffffffffffffffffffff1673ffffffffffffffffffffffffffffffffffffffff167f8be0079c531659141344cd1fd0a4f28419497f9722a3daafe3b4186f6b6457e060405160405180910390a3806000806101000a81548173ffffffffffffffffffffffffffffffffffffffff021916908373ffffffffffffffffffffffffffffffffffffffff1602179055505056fea165627a7a72305820df228ea7f828b791b0943e6cc90bba2e8b55577f1548741dabac306a4ad436e70029",
  "source": "pragma solidity 0.5.0;\n\nimport \"openzeppelin-solidity/contracts/math/SafeMath.sol\";\nimport \"openzeppelin-solidity/contracts/ownership/Ownable.sol\";\nimport \"../SnakesAndLadders.sol\";\n\ncontract SnakesAndLaddersMock is SnakesAndLadders {\n    uint nonce = 0;\n\n    function setNonce(uint n) public {\n        nonce = n;\n    }\n\n    /**\n     * Returns a NOT a random number\n     */\n    function random() public view returns(uint256) {\n        return uint256(keccak256(abi.encodePacked(nonce)));\n    }\n}\n",
  "sourcePath": "/home/pere/Projects/eth-snakesandladders/contracts/mock/SnakesAndLaddersMock.sol",
  "compiler": {
    "name": "solc",
    "version": "0.5.0+commit.1d4f565a.Emscripten.clang"
  },
  "schemaVersion": "3.0.3",
  "updatedAt": "2019-10-24T18:01:46.220Z",
  "devdoc": {
    "methods": {
      "isOwner()": {
        "details": "Returns true if the caller is the current owner."
      },
      "owner()": {
        "details": "Returns the address of the current owner."
      },
      "renounceOwnership()": {
        "details": "Leaves the contract without owner. It will not be possible to call `onlyOwner` functions anymore. Can only be called by the current owner.     * > Note: Renouncing ownership will leave the contract without an owner, thereby removing any functionality that is only available to the owner."
      },
      "transferOwnership(address)": {
        "details": "Transfers ownership of the contract to a new account (`newOwner`). Can only be called by the current owner."
      }
    }
  },
  "userdoc": {
    "methods": {
      "addAndPlay(uint256)": {
        "notice": "Adds balance and plays a game"
      },
      "addBalance()": {
        "notice": "Add to balance"
      },
      "addFunds()": {
        "notice": "Add funds to the contract by the owner"
      },
      "play(uint256)": {
        "notice": "Plays the game"
      },
      "random()": {
        "notice": "Returns a NOT a random number"
      },
      "randomDice(uint256,uint256)": {
        "notice": "Returns a random number from 1 to 6 based from a uint256 and turn"
      },
      "withdrawBalance()": {
        "notice": "Withdraw all balance"
      },
      "withdrawFunds(uint256)": {
        "notice": "Remove funds from the contract by the owner"
      }
    }
  }
}