{
  "contractName": "SnakesAndLadders",
  "abi": [
    {
      "constant": true,
      "inputs": [
        {
          "name": "",
          "type": "address"
        }
      ],
      "name": "balances",
      "outputs": [
        {
          "name": "",
          "type": "uint256"
        }
      ],
      "payable": false,
      "stateMutability": "view",
      "type": "function"
    },
    {
      "constant": false,
      "inputs": [],
      "name": "renounceOwnership",
      "outputs": [],
      "payable": false,
      "stateMutability": "nonpayable",
      "type": "function"
    },
    {
      "constant": true,
      "inputs": [],
      "name": "owner",
      "outputs": [
        {
          "name": "",
          "type": "address"
        }
      ],
      "payable": false,
      "stateMutability": "view",
      "type": "function"
    },
    {
      "constant": true,
      "inputs": [],
      "name": "isOwner",
      "outputs": [
        {
          "name": "",
          "type": "bool"
        }
      ],
      "payable": false,
      "stateMutability": "view",
      "type": "function"
    },
    {
      "constant": false,
      "inputs": [
        {
          "name": "newOwner",
          "type": "address"
        }
      ],
      "name": "transferOwnership",
      "outputs": [],
      "payable": false,
      "stateMutability": "nonpayable",
      "type": "function"
    },
    {
      "inputs": [],
      "payable": false,
      "stateMutability": "nonpayable",
      "type": "constructor"
    },
    {
      "payable": true,
      "stateMutability": "payable",
      "type": "fallback"
    },
    {
      "anonymous": false,
      "inputs": [
        {
          "indexed": false,
          "name": "sender",
          "type": "address"
        },
        {
          "indexed": false,
          "name": "turn",
          "type": "uint256"
        },
        {
          "indexed": false,
          "name": "player",
          "type": "bool"
        },
        {
          "indexed": false,
          "name": "move",
          "type": "int256"
        }
      ],
      "name": "LogMove",
      "type": "event"
    },
    {
      "anonymous": false,
      "inputs": [
        {
          "indexed": false,
          "name": "sender",
          "type": "address"
        },
        {
          "indexed": false,
          "name": "result",
          "type": "bool"
        },
        {
          "indexed": false,
          "name": "balancediff",
          "type": "int256"
        }
      ],
      "name": "LogGame",
      "type": "event"
    },
    {
      "anonymous": false,
      "inputs": [
        {
          "indexed": false,
          "name": "sender",
          "type": "address"
        },
        {
          "indexed": false,
          "name": "amount",
          "type": "uint256"
        }
      ],
      "name": "LogFund",
      "type": "event"
    },
    {
      "anonymous": false,
      "inputs": [
        {
          "indexed": false,
          "name": "sender",
          "type": "address"
        },
        {
          "indexed": false,
          "name": "amount",
          "type": "uint256"
        }
      ],
      "name": "LogWithdraw",
      "type": "event"
    },
    {
      "anonymous": false,
      "inputs": [
        {
          "indexed": false,
          "name": "sender",
          "type": "address"
        },
        {
          "indexed": false,
          "name": "amount",
          "type": "uint256"
        }
      ],
      "name": "LogAddBalance",
      "type": "event"
    },
    {
      "anonymous": false,
      "inputs": [
        {
          "indexed": false,
          "name": "sender",
          "type": "address"
        },
        {
          "indexed": false,
          "name": "amount",
          "type": "uint256"
        }
      ],
      "name": "LogRemoveBalance",
      "type": "event"
    },
    {
      "anonymous": false,
      "inputs": [
        {
          "indexed": true,
          "name": "previousOwner",
          "type": "address"
        },
        {
          "indexed": true,
          "name": "newOwner",
          "type": "address"
        }
      ],
      "name": "OwnershipTransferred",
      "type": "event"
    },
    {
      "constant": false,
      "inputs": [
        {
          "name": "amount",
          "type": "uint256"
        }
      ],
      "name": "addAndPlay",
      "outputs": [],
      "payable": true,
      "stateMutability": "payable",
      "type": "function"
    },
    {
      "constant": false,
      "inputs": [
        {
          "name": "amount",
          "type": "uint256"
        }
      ],
      "name": "play",
      "outputs": [],
      "payable": false,
      "stateMutability": "nonpayable",
      "type": "function"
    },
    {
      "constant": true,
      "inputs": [
        {
          "name": "randomString",
          "type": "uint256"
        },
        {
          "name": "turn",
          "type": "uint256"
        }
      ],
      "name": "randomDice",
      "outputs": [
        {
          "name": "",
          "type": "int8"
        }
      ],
      "payable": false,
      "stateMutability": "pure",
      "type": "function"
    },
    {
      "constant": true,
      "inputs": [],
      "name": "random",
      "outputs": [
        {
          "name": "",
          "type": "uint256"
        }
      ],
      "payable": false,
      "stateMutability": "view",
      "type": "function"
    },
    {
      "constant": false,
      "inputs": [],
      "name": "addBalance",
      "outputs": [],
      "payable": true,
      "stateMutability": "payable",
      "type": "function"
    },
    {
      "constant": false,
      "inputs": [],
      "name": "withdrawBalance",
      "outputs": [],
      "payable": false,
      "stateMutability": "nonpayable",
      "type": "function"
    },
    {
      "constant": false,
      "inputs": [],
      "name": "addFunds",
      "outputs": [],
      "payable": true,
      "stateMutability": "payable",
      "type": "function"
    },
    {
      "constant": false,
      "inputs": [
        {
          "name": "amount",
          "type": "uint256"
        }
      ],
      "name": "withdrawFunds",
      "outputs": [],
      "payable": false,
      "stateMutability": "nonpayable",
      "type": "function"
    }
  ],
  "bytecode": "0x60806040526064600360006101000a81548160ff021916908360000b60ff16021790555034801561002f57600080fd5b50336000806101000a81548173ffffffffffffffffffffffffffffffffffffffff021916908373ffffffffffffffffffffffffffffffffffffffff1602179055506000809054906101000a900473ffffffffffffffffffffffffffffffffffffffff1673ffffffffffffffffffffffffffffffffffffffff16600073ffffffffffffffffffffffffffffffffffffffff167f8be0079c531659141344cd1fd0a4f28419497f9722a3daafe3b4186f6b6457e060405160405180910390a3600e60026000600460000b815260200190815260200160002060006101000a81548160ff021916908360000b60ff160217905550602060026000600860000b815260200190815260200160002060006101000a81548160ff021916908360000b60ff160217905550602660026000601460000b815260200190815260200160002060006101000a81548160ff021916908360000b60ff160217905550605460026000601c60000b815260200190815260200160002060006101000a81548160ff021916908360000b60ff160217905550603b60026000602860000b815260200190815260200160002060006101000a81548160ff021916908360000b60ff160217905550605360026000603a60000b815260200190815260200160002060006101000a81548160ff021916908360000b60ff160217905550605d60026000604860000b815260200190815260200160002060006101000a81548160ff021916908360000b60ff160217905550600360026000600f60000b815260200190815260200160002060006101000a81548160ff021916908360000b60ff160217905550600960026000601f60000b815260200190815260200160002060006101000a81548160ff021916908360000b60ff160217905550601a60026000602c60000b815260200190815260200160002060006101000a81548160ff021916908360000b60ff160217905550601360026000603e60000b815260200190815260200160002060006101000a81548160ff021916908360000b60ff160217905550602a60026000604060000b815260200190815260200160002060006101000a81548160ff021916908360000b60ff160217905550604660026000604a60000b815260200190815260200160002060006101000a81548160ff021916908360000b60ff160217905550602160026000605560000b815260200190815260200160002060006101000a81548160ff021916908360000b60ff160217905550604760026000605b60000b815260200190815260200160002060006101000a81548160ff021916908360000b60ff160217905550604b60026000606060000b815260200190815260200160002060006101000a81548160ff021916908360000b60ff160217905550605060026000606260000b815260200190815260200160002060006101000a81548160ff021916908360000b60ff16021790555061151b8061046f6000396000f3fe6080604052600436106100c5576000357c0100000000000000000000000000000000000000000000000000000000900463ffffffff168063155dd5ee1461013357806327e235e31461016e5780635ec01e4d146101d35780635fd8c710146101fe5780636898f82b14610215578063715018a6146102505780638da5cb5b146102675780638f32d59b146102be5780639f4aec59146102ed578063a26759cb1461034c578063b163cc3814610356578063ddd848dc14610360578063f2fde38b1461038e575b6040517f08c379a000000000000000000000000000000000000000000000000000000000815260040180806020018281038252601d8152602001807f5573652061646442616c616e636520746f2073656e64206d6f6e65792e00000081525060200191505060405180910390fd5b34801561013f57600080fd5b5061016c6004803603602081101561015657600080fd5b81019080803590602001909291905050506103df565b005b34801561017a57600080fd5b506101bd6004803603602081101561019157600080fd5b81019080803573ffffffffffffffffffffffffffffffffffffffff16906020019092919050505061066b565b6040518082815260200191505060405180910390f35b3480156101df57600080fd5b506101e8610683565b6040518082815260200191505060405180910390f35b34801561020a57600080fd5b50610213610700565b005b34801561022157600080fd5b5061024e6004803603602081101561023857600080fd5b81019080803590602001909291905050506108b6565b005b34801561025c57600080fd5b50610265610e81565b005b34801561027357600080fd5b5061027c610fbc565b604051808273ffffffffffffffffffffffffffffffffffffffff1673ffffffffffffffffffffffffffffffffffffffff16815260200191505060405180910390f35b3480156102ca57600080fd5b506102d3610fe5565b604051808215151515815260200191505060405180910390f35b3480156102f957600080fd5b506103306004803603604081101561031057600080fd5b81019080803590602001909291908035906020019092919050505061103c565b604051808260000b60000b815260200191505060405180910390f35b610354611077565b005b61035e611160565b005b61038c6004803603602081101561037657600080fd5b810190808035906020019092919050505061121a565b005b34801561039a57600080fd5b506103dd600480360360208110156103b157600080fd5b81019080803573ffffffffffffffffffffffffffffffffffffffff1690602001909291905050506112de565b005b6103e7610fe5565b151561045b576040517f08c379a00000000000000000000000000000000000000000000000000000000081526004018080602001828103825260208152602001807f4f776e61626c653a2063616c6c6572206973206e6f7420746865206f776e657281525060200191505060405180910390fd5b60003073ffffffffffffffffffffffffffffffffffffffff16311115156104ea576040517f08c379a000000000000000000000000000000000000000000000000000000000815260040180806020018281038252601f8152602001807f5468657265206973206e6f2062616c616e636520746f2077697468647261770081525060200191505060405180910390fd5b803073ffffffffffffffffffffffffffffffffffffffff16311015151561059f576040517f08c379a00000000000000000000000000000000000000000000000000000000081526004018080602001828103825260278152602001807f5468657265206973206e6f7420656e6f7567682062616c616e636520746f207781526020017f697468647261770000000000000000000000000000000000000000000000000081525060400191505060405180910390fd5b7ff79628edbc100ee4c818afdbe8e79d40d646414b0ac60346142e347144b9caed333073ffffffffffffffffffffffffffffffffffffffff1631604051808373ffffffffffffffffffffffffffffffffffffffff1673ffffffffffffffffffffffffffffffffffffffff1681526020018281526020019250505060405180910390a13373ffffffffffffffffffffffffffffffffffffffff166108fc829081150290604051600060405180830381858888f19350505050158015610667573d6000803e3d6000fd5b5050565b60016020528060005260406000206000915090505481565b6000424433604051602001808481526020018381526020018273ffffffffffffffffffffffffffffffffffffffff1673ffffffffffffffffffffffffffffffffffffffff166c0100000000000000000000000002815260140193505050506040516020818303038152906040528051906020012060019004905090565b6000600160003373ffffffffffffffffffffffffffffffffffffffff1673ffffffffffffffffffffffffffffffffffffffff1681526020019081526020016000205490506000811115156107bc576040517f08c379a000000000000000000000000000000000000000000000000000000000815260040180806020018281038252601f8152602001807f5468657265206973206e6f2062616c616e636520746f2077697468647261770081525060200191505060405180910390fd5b7f4ce7033d118120e254016dccf195288400b28fc8936425acd5f17ce2df3ab7083382604051808373ffffffffffffffffffffffffffffffffffffffff1673ffffffffffffffffffffffffffffffffffffffff1681526020018281526020019250505060405180910390a16000600160003373ffffffffffffffffffffffffffffffffffffffff1673ffffffffffffffffffffffffffffffffffffffff168152602001908152602001600020819055503373ffffffffffffffffffffffffffffffffffffffff166108fc829081150290604051600060405180830381858888f193505050501580156108b2573d6000803e3d6000fd5b5050565b60008111151561092e576040517f08c379a000000000000000000000000000000000000000000000000000000000815260040180806020018281038252601e8152602001807f596f75206d7573742073656e6420736f6d657468696e6720746f20626574000081525060200191505060405180910390fd5b600160003373ffffffffffffffffffffffffffffffffffffffff1673ffffffffffffffffffffffffffffffffffffffff1681526020019081526020016000205481111515156109e5576040517f08c379a000000000000000000000000000000000000000000000000000000000815260040180806020018281038252601d8152602001807f596f7520646f6e2774206861766520656e6f7567682062616c616e636500000081525060200191505060405180910390fd5b3073ffffffffffffffffffffffffffffffffffffffff1631600a8202101515610a9c576040517f08c379a00000000000000000000000000000000000000000000000000000000081526004018080602001828103825260368152602001807f596f752063616e6e6f7420626574206d6f7265207468616e20312f3130206f6681526020017f207468697320636f6e74726163742062616c616e63650000000000000000000081525060400191505060405180910390fd5b6000610aa6610683565b905060008090506000809050600080905060008090506000610ac98660ff61103c565b905060018160000b1480610ae0575060028160000b145b15610aea57600193505b5b600360009054906101000a900460000b60000b8360000b14158015610b255750600360009054906101000a900460000b60000b8260000b14155b15610cc8576000610b36878761103c565b90508415610bbb5780840193506000600260008660000b60000b815260200190815260200160002060009054906101000a900460000b60000b141515610ba057600260008560000b60000b815260200190815260200160002060009054906101000a900460000b93505b60648460000b1315610bb6576064840360640393505b610c34565b80830192506000600260008560000b60000b815260200190815260200160002060009054906101000a900460000b60000b141515610c1d57600260008460000b60000b815260200190815260200160002060009054906101000a900460000b92505b60648360000b1315610c33576064830360640392505b5b7f328ae74d0ec75f72cd982577fe559f138c5af6cb657e7f72797dc856533afad533878784604051808573ffffffffffffffffffffffffffffffffffffffff1673ffffffffffffffffffffffffffffffffffffffff168152602001848152602001831515151581526020018260000b815260200194505050505060405180910390a184159450858060010196505050610aeb565b600360009054906101000a900460000b60000b8360000b1415610daf5786600160003373ffffffffffffffffffffffffffffffffffffffff1673ffffffffffffffffffffffffffffffffffffffff168152602001908152602001600020600082825401925050819055507fcb89bd3d0a28836c160c46e949d36d2c54627c2f03143564b726fe40475472b133600189604051808473ffffffffffffffffffffffffffffffffffffffff1673ffffffffffffffffffffffffffffffffffffffff16815260200183151515158152602001828152602001935050505060405180910390a1610e78565b86600160003373ffffffffffffffffffffffffffffffffffffffff1673ffffffffffffffffffffffffffffffffffffffff168152602001908152602001600020600082825403925050819055507fcb89bd3d0a28836c160c46e949d36d2c54627c2f03143564b726fe40475472b133600089600003604051808473ffffffffffffffffffffffffffffffffffffffff1673ffffffffffffffffffffffffffffffffffffffff16815260200183151515158152602001828152602001935050505060405180910390a15b50505050505050565b610e89610fe5565b1515610efd576040517f08c379a00000000000000000000000000000000000000000000000000000000081526004018080602001828103825260208152602001807f4f776e61626c653a2063616c6c6572206973206e6f7420746865206f776e657281525060200191505060405180910390fd5b600073ffffffffffffffffffffffffffffffffffffffff166000809054906101000a900473ffffffffffffffffffffffffffffffffffffffff1673ffffffffffffffffffffffffffffffffffffffff167f8be0079c531659141344cd1fd0a4f28419497f9722a3daafe3b4186f6b6457e060405160405180910390a360008060006101000a81548173ffffffffffffffffffffffffffffffffffffffff021916908373ffffffffffffffffffffffffffffffffffffffff160217905550565b60008060009054906101000a900473ffffffffffffffffffffffffffffffffffffffff16905090565b60008060009054906101000a900473ffffffffffffffffffffffffffffffffffffffff1673ffffffffffffffffffffffffffffffffffffffff163373ffffffffffffffffffffffffffffffffffffffff1614905090565b60006101008281151561104b57fe5b069150600160068360020a8581151561106057fe5b0460ff1681151561106d57fe5b0601905092915050565b61107f610fe5565b15156110f3576040517f08c379a00000000000000000000000000000000000000000000000000000000081526004018080602001828103825260208152602001807f4f776e61626c653a2063616c6c6572206973206e6f7420746865206f776e657281525060200191505060405180910390fd5b7f80375a06eb2ba0cd76499d617b8cdbca746cd345d62f74447f626e359b2139413334604051808373ffffffffffffffffffffffffffffffffffffffff1673ffffffffffffffffffffffffffffffffffffffff1681526020018281526020019250505060405180910390a1565b7f527b059b2c1f34c287da42c15a6cb163dc09fd8b048e89a6a92f568c6a808d4a3334604051808373ffffffffffffffffffffffffffffffffffffffff1673ffffffffffffffffffffffffffffffffffffffff1681526020018281526020019250505060405180910390a134600160003373ffffffffffffffffffffffffffffffffffffffff1673ffffffffffffffffffffffffffffffffffffffff16815260200190815260200160002060008282540192505081905550565b7f527b059b2c1f34c287da42c15a6cb163dc09fd8b048e89a6a92f568c6a808d4a3334604051808373ffffffffffffffffffffffffffffffffffffffff1673ffffffffffffffffffffffffffffffffffffffff1681526020018281526020019250505060405180910390a134600160003373ffffffffffffffffffffffffffffffffffffffff1673ffffffffffffffffffffffffffffffffffffffff168152602001908152602001600020600082825401925050819055506112db816108b6565b50565b6112e6610fe5565b151561135a576040517f08c379a00000000000000000000000000000000000000000000000000000000081526004018080602001828103825260208152602001807f4f776e61626c653a2063616c6c6572206973206e6f7420746865206f776e657281525060200191505060405180910390fd5b61136381611366565b50565b600073ffffffffffffffffffffffffffffffffffffffff168173ffffffffffffffffffffffffffffffffffffffff1614151515611431576040517f08c379a00000000000000000000000000000000000000000000000000000000081526004018080602001828103825260268152602001807f4f776e61626c653a206e6577206f776e657220697320746865207a65726f206181526020017f646472657373000000000000000000000000000000000000000000000000000081525060400191505060405180910390fd5b8073ffffffffffffffffffffffffffffffffffffffff166000809054906101000a900473ffffffffffffffffffffffffffffffffffffffff1673ffffffffffffffffffffffffffffffffffffffff167f8be0079c531659141344cd1fd0a4f28419497f9722a3daafe3b4186f6b6457e060405160405180910390a3806000806101000a81548173ffffffffffffffffffffffffffffffffffffffff021916908373ffffffffffffffffffffffffffffffffffffffff1602179055505056fea165627a7a72305820ca674db808ff25d5bcb90f741969b46fb81ec5ff02cfc3216b61decba69b29260029",
  "source": "pragma solidity 0.5.0;\n\nimport \"openzeppelin-solidity/contracts/math/SafeMath.sol\";\nimport \"openzeppelin-solidity/contracts/ownership/Ownable.sol\";\n\ncontract SnakesAndLadders is Ownable {\n    using SafeMath for uint;\n    using SafeMath for uint8;\n\n    // All balances\n    mapping(address => uint) public balances;\n\n    // Player: is true if it's the user, otherwise is the AI\n    // Turn: turn of the game starting from 0\n    // Move: The dice move from 1 to 6\n    event LogMove(address sender, uint turn, bool player, int move);\n    event LogGame(address sender, bool result, int balancediff);\n    event LogFund(address sender, uint amount);\n    event LogWithdraw(address sender, uint amount);\n    event LogAddBalance(address sender, uint amount);\n    event LogRemoveBalance(address sender, uint amount);\n\n    // Game composition\n    mapping(int8 => int8) private boardElements;\n    int8 private tiles = 100;  // 1 + 99\n\n    constructor() public {\n        // ladders\n        boardElements[4] = 14;\n        boardElements[8] = 32;\n        boardElements[20] = 38;\n        boardElements[28] = 84;\n        boardElements[40] = 59;\n        boardElements[58] = 83;\n        boardElements[72] = 93;\n        // snakes\n        boardElements[15] = 3;\n        boardElements[31] = 9;\n        boardElements[44] = 26;\n        boardElements[62] = 19;\n        boardElements[64] = 42;\n        boardElements[74] = 70;\n        boardElements[85] = 33;\n        boardElements[91] = 71;\n        boardElements[96] = 75;\n        boardElements[98] = 80;\n    }\n\n    /**\n     * Avoid sending money directly to the contract\n     */\n    function() external payable {\n        revert(\"Use addBalance to send money.\");\n    }\n\n    /**\n     * Adds balance and plays a game\n     */\n    function addAndPlay(uint amount) public payable {\n        emit LogFund(msg.sender, msg.value);\n        balances[msg.sender] += msg.value;\n        play(amount);\n    }\n\n    /**\n     * Plays the game\n     */\n    function play(uint amount) public {\n        require(amount > 0, \"You must send something to bet\");\n        require(amount <= balances[msg.sender], \"You don't have enough balance\");\n        require(amount*10 < address(this).balance, \"You cannot bet more than 1/10 of this contract balance\");\n        uint randomString = random();\n        uint turn = 0;\n        bool player = false;  // true if next move is for player, false if for computer\n        int8 playerUser = 0;\n        int8 playerAI = 0;\n        // let's decide who starts\n        int8 startDice = randomDice(randomString, 255);\n        if (startDice == 1 || startDice == 2) {\n            player = true;\n        }\n        // make all the moves and emit the results\n        while (playerUser != tiles && playerAI != tiles) {\n            int8 move = randomDice(randomString, turn);\n            if (player) {\n                playerUser = playerUser + move;\n                if (boardElements[playerUser] != 0) {\n                    playerUser = boardElements[playerUser];\n                }\n                if (playerUser > 100) {\n                    playerUser = 100 - (playerUser - 100);\n                }\n            } else {\n                playerAI = playerAI + move;\n                if (boardElements[playerAI] != 0) {\n                    playerAI = boardElements[playerAI];\n                }\n                if (playerAI > 100) {\n                    playerAI = 100 - (playerAI - 100);\n                }\n            }\n            emit LogMove(msg.sender, turn, player, move);\n            player = !player;\n            turn++;\n        }\n        if (playerUser == tiles) {\n            balances[msg.sender] += amount;\n            emit LogGame(msg.sender, true, int(amount));\n        } else {\n            balances[msg.sender] -= amount;\n            emit LogGame(msg.sender, false, -int(amount));\n        }\n    }\n\n    /**\n     * Returns a random number from 1 to 6 based from a uint256 and turn\n     */\n    function randomDice(uint randomString, uint turn) public pure returns(int8) {\n        turn = turn%256;\n        return int8(uint8(randomString/2**turn)%6 + 1);\n    }\n\n    /**\n     * Returns a random uint256\n     * TODO better use oraclize\n     */\n    function random() public view returns(uint256) {\n        return uint(keccak256(abi.encodePacked(block.timestamp, block.difficulty, msg.sender)));\n    }\n\n    /**\n     * Add to balance\n     */\n    function addBalance() public payable {\n        emit LogFund(msg.sender, msg.value);\n        balances[msg.sender] += msg.value;\n    }\n\n    /**\n     * Withdraw all balance\n     */\n    function withdrawBalance() public {\n        uint toWithdraw = balances[msg.sender];\n        require(toWithdraw > 0, \"There is no balance to withdraw\");\n        emit LogWithdraw(msg.sender, toWithdraw);\n        balances[msg.sender] = 0;\n        msg.sender.transfer(toWithdraw);\n    }\n\n    /**\n     * Add funds to the contract by the owner\n     */\n    function addFunds() public payable onlyOwner {\n        emit LogAddBalance(msg.sender, msg.value);\n    }\n\n    /**\n     * Remove funds from the contract by the owner\n     */\n    function withdrawFunds(uint amount) public onlyOwner {\n        require(address(this).balance > 0, \"There is no balance to withdraw\");\n        require(address(this).balance >= amount, \"There is not enough balance to withdraw\");\n        emit LogRemoveBalance(msg.sender, address(this).balance);\n        msg.sender.transfer(amount);\n    }\n}\n",
  "sourcePath": "/home/pere/Projects/eth-snakesandladders/contracts/SnakesAndLadders.sol",
  "compiler": {
    "name": "solc",
    "version": "0.5.0+commit.1d4f565a.Emscripten.clang"
  },
  "schemaVersion": "3.0.3",
  "updatedAt": "2019-10-23T10:32:57.309Z",
  "devdoc": {
    "methods": {
      "isOwner()": {
        "details": "Returns true if the caller is the current owner."
      },
      "owner()": {
        "details": "Returns the address of the current owner."
      },
      "renounceOwnership()": {
        "details": "Leaves the contract without owner. It will not be possible to call `onlyOwner` functions anymore. Can only be called by the current owner.     * > Note: Renouncing ownership will leave the contract without an owner, thereby removing any functionality that is only available to the owner."
      },
      "transferOwnership(address)": {
        "details": "Transfers ownership of the contract to a new account (`newOwner`). Can only be called by the current owner."
      }
    }
  },
  "userdoc": {
    "methods": {
      "addAndPlay(uint256)": {
        "notice": "Adds balance and plays a game"
      },
      "addBalance()": {
        "notice": "Add to balance"
      },
      "addFunds()": {
        "notice": "Add funds to the contract by the owner"
      },
      "play(uint256)": {
        "notice": "Plays the game"
      },
      "random()": {
        "notice": "Returns a random uint256 TODO better use oraclize"
      },
      "randomDice(uint256,uint256)": {
        "notice": "Returns a random number from 1 to 6 based from a uint256 and turn"
      },
      "withdrawBalance()": {
        "notice": "Withdraw all balance"
      },
      "withdrawFunds(uint256)": {
        "notice": "Remove funds from the contract by the owner"
      }
    }
  }
}